{
  "abi": [
    {
      "inputs": [],
      "name": "returnAmount",
      "outputs": [
        {
          "internalType": "uint256",
          "name": "",
          "type": "uint256"
        }
      ],
      "stateMutability": "payable",
      "type": "function"
    }
  ],
  "bytecode": {
    "object": "0x6080604052348015600f57600080fd5b50607c8061001e6000396000f3fe608060405260043610601c5760003560e01c8063f35eeaef146021575b600080fd5b60276039565b60405190815260200160405180910390f35b6000604051348152602081f3fea26469706673582212200a0cfa14bbf9716fd75e0a8866009541442696950bb30e241288e0e97a339e4764736f6c63430008110033",
    "linkReferences": {}
  },
  "methodIdentifiers": {
    "returnAmount()": "f35eeaef"
  },
  "id": 0
}