{
  "abi": [
    {
      "inputs": [],
      "name": "returnAmount",
      "outputs": [
        {
          "internalType": "uint256",
          "name": "",
          "type": "uint256"
        }
      ],
      "stateMutability": "payable",
      "type": "function"
    }
  ],
  "bytecode": {
    "object": "0x6080604052348015600f57600080fd5b50607c8061001e6000396000f3fe608060405260043610601c5760003560e01c8063f35eeaef146021575b600080fd5b60276039565b60405190815260200160405180910390f35b6000604051348152602081f3fea2646970667358221220c5fbb9b611ef62856bbef1c57b639268f7f9cdf8ae17d474c68ed2d5435767fd64736f6c63430008130033",
    "linkReferences": {}
  },
  "methodIdentifiers": {
    "returnAmount()": "f35eeaef"
  },
  "id": 4
}