{
  "abi": [
    {
      "inputs": [],
      "name": "count",
      "outputs": [
        {
          "internalType": "uint256",
          "name": "",
          "type": "uint256"
        }
      ],
      "stateMutability": "view",
      "type": "function"
    },
    {
      "inputs": [
        {
          "internalType": "uint256",
          "name": "num",
          "type": "uint256"
        }
      ],
      "name": "increment",
      "outputs": [],
      "stateMutability": "nonpayable",
      "type": "function"
    }
  ],
  "bytecode": {
    "object": "0x6080604052600a60005534801561001557600080fd5b5060b8806100246000396000f3fe6080604052348015600f57600080fd5b506004361060325760003560e01c806306661abd1460375780637cf5dab0146051575b600080fd5b603f60005481565b60405190815260200160405180910390f35b6068605c366004606a565b60008054919091019055565b005b600060208284031215607b57600080fd5b503591905056fea264697066735822122068369cdce7afcf441119bff22e7223901cf04b9a2a5034acfdb95d290cbf79b564736f6c63430008110033",
    "linkReferences": {}
  },
  "methodIdentifiers": {
    "count()": "06661abd",
    "increment(uint256)": "7cf5dab0"
  },
  "id": 0
}