{
  "abi": [
    {
      "inputs": [
        {
          "internalType": "uint256",
          "name": "x",
          "type": "uint256"
        },
        {
          "internalType": "uint256",
          "name": "y",
          "type": "uint256"
        }
      ],
      "name": "subtract",
      "outputs": [
        {
          "internalType": "uint256",
          "name": "",
          "type": "uint256"
        }
      ],
      "stateMutability": "pure",
      "type": "function"
    }
  ],
  "bytecode": {
    "object": "0x608060405234801561001057600080fd5b5060c48061001f6000396000f3fe6080604052348015600f57600080fd5b506004361060285760003560e01c80633ef5e44514602d575b600080fd5b603c6038366004606d565b604e565b60405190815260200160405180910390f35b8082036000908152818310156067576000602052602080f35b60206000f35b60008060408385031215607f57600080fd5b5050803592602090910135915056fea2646970667358221220f15e638cdf6c81888d1beccc63e842cdd5ab72b661f72e2a4225ab9f7c7334de64736f6c634300080d0033",
    "linkReferences": {}
  },
  "methodIdentifiers": {
    "subtract(uint256,uint256)": "3ef5e445"
  },
  "id": 0
}