{
  "abi": [
    {
      "inputs": [],
      "name": "intro",
      "outputs": [
        {
          "internalType": "uint16",
          "name": "",
          "type": "uint16"
        }
      ],
      "stateMutability": "pure",
      "type": "function"
    }
  ],
  "bytecode": {
    "object": "0x6080604052348015600f57600080fd5b50608f8061001e6000396000f3fe6080604052348015600f57600080fd5b506004361060285760003560e01c80632cc0e39014602d575b600080fd5b6033604a565b60405161ffff909116815260200160405180910390f35b6101a460008181529080602083f3fea2646970667358221220ef8edee6b97b43e1522d3ad8b4f2735f1875437f0b902549fa55952921be697964736f6c63430008130033",
    "linkReferences": {}
  },
  "methodIdentifiers": {
    "intro()": "2cc0e390"
  },
  "id": 0
}