{
  "abi": [
    {
      "inputs": [
        {
          "internalType": "address",
          "name": "_treasuryAdmin",
          "type": "address"
        },
        {
          "internalType": "address",
          "name": "_token",
          "type": "address"
        }
      ],
      "stateMutability": "nonpayable",
      "type": "constructor"
    },
    {
      "inputs": [],
      "name": "NotAdmin",
      "type": "error"
    },
    {
      "inputs": [
        {
          "internalType": "address",
          "name": "receiver",
          "type": "address"
        },
        {
          "internalType": "uint256",
          "name": "amount",
          "type": "uint256"
        }
      ],
      "name": "requestSpendMoney",
      "outputs": [],
      "stateMutability": "nonpayable",
      "type": "function"
    },
    {
      "inputs": [
        {
          "internalType": "address",
          "name": "to",
          "type": "address"
        },
        {
          "internalType": "uint256",
          "name": "amount",
          "type": "uint256"
        }
      ],
      "name": "transfer",
      "outputs": [
        {
          "internalType": "bool",
          "name": "",
          "type": "bool"
        }
      ],
      "stateMutability": "nonpayable",
      "type": "function"
    }
  ],
  "bytecode": {
    "object": "0x608060405234801561001057600080fd5b506040516102f53803806102f583398101604081905261002f9161007c565b600080546001600160a01b039384166001600160a01b031991821617909155600180549290931691161790556100af565b80516001600160a01b038116811461007757600080fd5b919050565b6000806040838503121561008f57600080fd5b61009883610060565b91506100a660208401610060565b90509250929050565b610237806100be6000396000f3fe608060405234801561001057600080fd5b50600436106100365760003560e01c8063a9059cbb1461003b578063f9f9923e14610062575b600080fd5b61004e6100493660046101a0565b610077565b604051901515815260200160405180910390f35b6100756100703660046101a0565b610124565b005b600080546001600160a01b031633146100a357604051637bfa4b9f60e01b815260040160405180910390fd5b60015460405163a9059cbb60e01b81526001600160a01b038581166004830152602482018590529091169063a9059cbb906044016020604051808303816000875af11580156100f6573d6000803e3d6000fd5b505050506040513d601f19601f8201168201806040525081019061011a91906101d8565b5060019392505050565b6000546040805163fcca5ddd60e01b8152600481018490526001600160a01b0385811660248301523060201b63a9059cbb1790921b604482015291169063fcca5ddd90606401600060405180830381600087803b15801561018457600080fd5b505af1158015610198573d6000803e3d6000fd5b505050505050565b600080604083850312156101b357600080fd5b82356001600160a01b03811681146101ca57600080fd5b946020939093013593505050565b6000602082840312156101ea57600080fd5b815180151581146101fa57600080fd5b939250505056fea2646970667358221220c9a1c625c0d45fd2efa715e884bf78676180340006cf924078146c101f57126964736f6c63430008110033",
    "linkReferences": {}
  },
  "methodIdentifiers": {
    "requestSpendMoney(address,uint256)": "f9f9923e",
    "transfer(address,uint256)": "a9059cbb"
  },
  "id": 0
}