{
  "abi": [
    {
      "inputs": [],
      "stateMutability": "nonpayable",
      "type": "constructor"
    },
    {
      "anonymous": false,
      "inputs": [
        {
          "indexed": true,
          "internalType": "address",
          "name": "previousOwner",
          "type": "address"
        },
        {
          "indexed": true,
          "internalType": "address",
          "name": "newOwner",
          "type": "address"
        }
      ],
      "name": "OwnershipTransferred",
      "type": "event"
    },
    {
      "inputs": [
        {
          "internalType": "uint256",
          "name": "requestId",
          "type": "uint256"
        },
        {
          "internalType": "bool",
          "name": "response",
          "type": "bool"
        }
      ],
      "name": "authorizeSpendMoney",
      "outputs": [],
      "stateMutability": "nonpayable",
      "type": "function"
    },
    {
      "inputs": [
        {
          "internalType": "uint256",
          "name": "requestId",
          "type": "uint256"
        }
      ],
      "name": "getRequestStatus",
      "outputs": [
        {
          "internalType": "enum TreasuryAdmin.Status",
          "name": "",
          "type": "uint8"
        }
      ],
      "stateMutability": "view",
      "type": "function"
    },
    {
      "inputs": [
        {
          "internalType": "address",
          "name": "to",
          "type": "address"
        },
        {
          "internalType": "uint256",
          "name": "amount",
          "type": "uint256"
        }
      ],
      "name": "mint",
      "outputs": [],
      "stateMutability": "nonpayable",
      "type": "function"
    },
    {
      "inputs": [],
      "name": "owner",
      "outputs": [
        {
          "internalType": "address",
          "name": "",
          "type": "address"
        }
      ],
      "stateMutability": "view",
      "type": "function"
    },
    {
      "inputs": [
        {
          "internalType": "uint256",
          "name": "_amount",
          "type": "uint256"
        },
        {
          "internalType": "address",
          "name": "_receiver",
          "type": "address"
        },
        {
          "internalType": "function (address,uint256) external returns (bool)",
          "name": "X",
          "type": "function"
        }
      ],
      "name": "query",
      "outputs": [],
      "stateMutability": "nonpayable",
      "type": "function"
    },
    {
      "inputs": [],
      "name": "renounceOwnership",
      "outputs": [],
      "stateMutability": "nonpayable",
      "type": "function"
    },
    {
      "inputs": [],
      "name": "token",
      "outputs": [
        {
          "internalType": "contract Token",
          "name": "",
          "type": "address"
        }
      ],
      "stateMutability": "view",
      "type": "function"
    },
    {
      "inputs": [
        {
          "internalType": "address",
          "name": "newOwner",
          "type": "address"
        }
      ],
      "name": "transferOwnership",
      "outputs": [],
      "stateMutability": "nonpayable",
      "type": "function"
    }
  ],
  "bytecode": {
    "object": "0x608060405234801561001057600080fd5b5061001a3361006e565b604051610026906100be565b604051809103906000f080158015610042573d6000803e3d6000fd5b50600260016101000a8154816001600160a01b0302191690836001600160a01b031602179055506100cb565b600080546001600160a01b038381166001600160a01b0319831681178455604051919092169283917f8be0079c531659141344cd1fd0a4f28419497f9722a3daafe3b4186f6b6457e09190a35050565b610d5d806108b983390190565b6107df806100da6000396000f3fe608060405234801561001057600080fd5b50600436106100885760003560e01c8063d8a4676f1161005b578063d8a4676f146100e7578063f2fde38b14610107578063fc0c546a1461011a578063fcca5ddd1461013257600080fd5b80630b9061f21461008d57806340c10f19146100a2578063715018a6146100b55780638da5cb5b146100bd575b600080fd5b6100a061009b366004610627565b610145565b005b6100a06100b0366004610673565b61032e565b6100a061039e565b6000546001600160a01b03165b6040516001600160a01b0390911681526020015b60405180910390f35b6100fa6100f536600461069d565b6103b2565b6040516100de91906106cc565b6100a06101153660046106f4565b6103eb565b6002546100ca9061010090046001600160a01b031681565b6100a0610140366004610716565b610469565b61014d61056f565b806101a25760026001838154811061016757610167610776565b906000526020600020906003020160020160186101000a81548160ff02191690836002811115610199576101996106b6565b02179055505050565b60018083815481106101b6576101b6610776565b906000526020600020906003020160020160186101000a81548160ff021916908360028111156101e8576101e86106b6565b021790555060006001838154811061020257610202610776565b60009182526020918290206040805160808101825260039093029091018054835260018101546001600160a01b031693830193909352600280840154640100000000600160c01b03811663ffffffff821617831b92840192909252919291606084019160ff600160c01b9091041690811115610280576102806106b6565b6002811115610291576102916106b6565b90525060208101518151604080840151815160a082901b6001600160e01b03191681526001600160a01b03851660048201526024810184905294955092939192606081901c92911c63ffffffff16906044016020604051808303816000875af1158015610302573d6000803e3d6000fd5b505050506040513d601f19601f82011682018060405250810190610326919061078c565b505050505050565b61033661056f565b6002546040516340c10f1960e01b81526001600160a01b03848116600483015260248201849052610100909204909116906340c10f1990604401600060405180830381600087803b15801561038a57600080fd5b505af1158015610326573d6000803e3d6000fd5b6103a661056f565b6103b060006105c9565b565b6000600182815481106103c7576103c7610776565b6000918252602090912060039091020160020154600160c01b900460ff1692915050565b6103f361056f565b6001600160a01b03811661045d5760405162461bcd60e51b815260206004820152602660248201527f4f776e61626c653a206e6577206f776e657220697320746865207a65726f206160448201526564647265737360d01b60648201526084015b60405180910390fd5b610466816105c9565b50565b60016040518060800160405280868152602001856001600160a01b03168152602001848463ffffffff169060201b1760401b8152602001600060028111156104b3576104b36106b6565b9052815460018181018455600093845260209384902083516003909302019182559282015192810180546001600160a01b039094166001600160a01b03199094169390931790925560408082015160028085018054640100000000600160c01b039390941c92831663ffffffff909316929092176001600160c01b03198416811783556060850151949594936001600160c81b0319161790600160c01b908490811115610562576105626106b6565b0217905550505050505050565b6000546001600160a01b031633146103b05760405162461bcd60e51b815260206004820181905260248201527f4f776e61626c653a2063616c6c6572206973206e6f7420746865206f776e65726044820152606401610454565b600080546001600160a01b038381166001600160a01b0319831681178455604051919092169283917f8be0079c531659141344cd1fd0a4f28419497f9722a3daafe3b4186f6b6457e09190a35050565b801515811461046657600080fd5b6000806040838503121561063a57600080fd5b82359150602083013561064c81610619565b809150509250929050565b80356001600160a01b038116811461066e57600080fd5b919050565b6000806040838503121561068657600080fd5b61068f83610657565b946020939093013593505050565b6000602082840312156106af57600080fd5b5035919050565b634e487b7160e01b600052602160045260246000fd5b60208101600383106106ee57634e487b7160e01b600052602160045260246000fd5b91905290565b60006020828403121561070657600080fd5b61070f82610657565b9392505050565b6000806000806060858703121561072c57600080fd5b8435935061073c60208601610657565b9250604085013567ffffffffffffffff198116811461075a57600080fd5b8060601c925063ffffffff8160401c1691505092959194509250565b634e487b7160e01b600052603260045260246000fd5b60006020828403121561079e57600080fd5b815161070f8161061956fea2646970667358221220857aea259fb43f93971138bcce2e36a3089da37ac569881ad3aec6c6e60240d964736f6c6343000811003360806040523480156200001157600080fd5b50604051806040016040528060058152602001642a37b5b2b760d91b815250604051806040016040528060038152602001622a25a760e91b81525081600390816200005d91906200018a565b5060046200006c82826200018a565b50505062000089620000836200008f60201b60201c565b62000093565b62000256565b3390565b600580546001600160a01b038381166001600160a01b0319831681179093556040519116919082907f8be0079c531659141344cd1fd0a4f28419497f9722a3daafe3b4186f6b6457e090600090a35050565b634e487b7160e01b600052604160045260246000fd5b600181811c908216806200011057607f821691505b6020821081036200013157634e487b7160e01b600052602260045260246000fd5b50919050565b601f8211156200018557600081815260208120601f850160051c81016020861015620001605750805b601f850160051c820191505b8181101562000181578281556001016200016c565b5050505b505050565b81516001600160401b03811115620001a657620001a6620000e5565b620001be81620001b78454620000fb565b8462000137565b602080601f831160018114620001f65760008415620001dd5750858301515b600019600386901b1c1916600185901b17855562000181565b600085815260208120601f198616915b82811015620002275788860151825594840194600190910190840162000206565b5085821015620002465787850151600019600388901b60f8161c191681555b5050505050600190811b01905550565b610af780620002666000396000f3fe608060405234801561001057600080fd5b50600436106100f55760003560e01c806370a0823111610097578063a457c2d711610066578063a457c2d7146101eb578063a9059cbb146101fe578063dd62ed3e14610211578063f2fde38b1461022457600080fd5b806370a0823114610197578063715018a6146101c05780638da5cb5b146101c857806395d89b41146101e357600080fd5b806323b872dd116100d357806323b872dd1461014d578063313ce56714610160578063395093511461016f57806340c10f191461018257600080fd5b806306fdde03146100fa578063095ea7b31461011857806318160ddd1461013b575b600080fd5b610102610237565b60405161010f9190610941565b60405180910390f35b61012b6101263660046109ab565b6102c9565b604051901515815260200161010f565b6002545b60405190815260200161010f565b61012b61015b3660046109d5565b6102e3565b6040516012815260200161010f565b61012b61017d3660046109ab565b610307565b6101956101903660046109ab565b610329565b005b61013f6101a5366004610a11565b6001600160a01b031660009081526020819052604090205490565b61019561033f565b6005546040516001600160a01b03909116815260200161010f565b610102610353565b61012b6101f93660046109ab565b610362565b61012b61020c3660046109ab565b6103e2565b61013f61021f366004610a33565b6103f0565b610195610232366004610a11565b61041b565b60606003805461024690610a66565b80601f016020809104026020016040519081016040528092919081815260200182805461027290610a66565b80156102bf5780601f10610294576101008083540402835291602001916102bf565b820191906000526020600020905b8154815290600101906020018083116102a257829003601f168201915b5050505050905090565b6000336102d7818585610494565b60019150505b92915050565b6000336102f18582856105b8565b6102fc858585610632565b506001949350505050565b6000336102d781858561031a83836103f0565b6103249190610aa0565b610494565b6103316107d6565b61033b8282610830565b5050565b6103476107d6565b61035160006108ef565b565b60606004805461024690610a66565b6000338161037082866103f0565b9050838110156103d55760405162461bcd60e51b815260206004820152602560248201527f45524332303a2064656372656173656420616c6c6f77616e63652062656c6f77604482015264207a65726f60d81b60648201526084015b60405180910390fd5b6102fc8286868403610494565b6000336102d7818585610632565b6001600160a01b03918216600090815260016020908152604080832093909416825291909152205490565b6104236107d6565b6001600160a01b0381166104885760405162461bcd60e51b815260206004820152602660248201527f4f776e61626c653a206e6577206f776e657220697320746865207a65726f206160448201526564647265737360d01b60648201526084016103cc565b610491816108ef565b50565b6001600160a01b0383166104f65760405162461bcd60e51b8152602060048201526024808201527f45524332303a20617070726f76652066726f6d20746865207a65726f206164646044820152637265737360e01b60648201526084016103cc565b6001600160a01b0382166105575760405162461bcd60e51b815260206004820152602260248201527f45524332303a20617070726f766520746f20746865207a65726f206164647265604482015261737360f01b60648201526084016103cc565b6001600160a01b0383811660008181526001602090815260408083209487168084529482529182902085905590518481527f8c5be1e5ebec7d5bd14f71427d1e84f3dd0314c0f7b2291e5b200ac8c7c3b925910160405180910390a3505050565b60006105c484846103f0565b9050600019811461062c578181101561061f5760405162461bcd60e51b815260206004820152601d60248201527f45524332303a20696e73756666696369656e7420616c6c6f77616e636500000060448201526064016103cc565b61062c8484848403610494565b50505050565b6001600160a01b0383166106965760405162461bcd60e51b815260206004820152602560248201527f45524332303a207472616e736665722066726f6d20746865207a65726f206164604482015264647265737360d81b60648201526084016103cc565b6001600160a01b0382166106f85760405162461bcd60e51b815260206004820152602360248201527f45524332303a207472616e7366657220746f20746865207a65726f206164647260448201526265737360e81b60648201526084016103cc565b6001600160a01b038316600090815260208190526040902054818110156107705760405162461bcd60e51b815260206004820152602660248201527f45524332303a207472616e7366657220616d6f756e7420657863656564732062604482015265616c616e636560d01b60648201526084016103cc565b6001600160a01b03848116600081815260208181526040808320878703905593871680835291849020805487019055925185815290927fddf252ad1be2c89b69c2b068fc378daa952ba7f163c4a11628f55a4df523b3ef910160405180910390a361062c565b6005546001600160a01b031633146103515760405162461bcd60e51b815260206004820181905260248201527f4f776e61626c653a2063616c6c6572206973206e6f7420746865206f776e657260448201526064016103cc565b6001600160a01b0382166108865760405162461bcd60e51b815260206004820152601f60248201527f45524332303a206d696e7420746f20746865207a65726f20616464726573730060448201526064016103cc565b80600260008282546108989190610aa0565b90915550506001600160a01b038216600081815260208181526040808320805486019055518481527fddf252ad1be2c89b69c2b068fc378daa952ba7f163c4a11628f55a4df523b3ef910160405180910390a35050565b600580546001600160a01b038381166001600160a01b0319831681179093556040519116919082907f8be0079c531659141344cd1fd0a4f28419497f9722a3daafe3b4186f6b6457e090600090a35050565b600060208083528351808285015260005b8181101561096e57858101830151858201604001528201610952565b506000604082860101526040601f19601f8301168501019250505092915050565b80356001600160a01b03811681146109a657600080fd5b919050565b600080604083850312156109be57600080fd5b6109c78361098f565b946020939093013593505050565b6000806000606084860312156109ea57600080fd5b6109f38461098f565b9250610a016020850161098f565b9150604084013590509250925092565b600060208284031215610a2357600080fd5b610a2c8261098f565b9392505050565b60008060408385031215610a4657600080fd5b610a4f8361098f565b9150610a5d6020840161098f565b90509250929050565b600181811c90821680610a7a57607f821691505b602082108103610a9a57634e487b7160e01b600052602260045260246000fd5b50919050565b808201808211156102dd57634e487b7160e01b600052601160045260246000fdfea264697066735822122013bc7eb65a79cfaa51875ffdf88a06e71951d3b533a212744bd5f23b92eb9e7f64736f6c63430008110033",
    "linkReferences": {}
  },
  "methodIdentifiers": {
    "authorizeSpendMoney(uint256,bool)": "0b9061f2",
    "getRequestStatus(uint256)": "d8a4676f",
    "mint(address,uint256)": "40c10f19",
    "owner()": "8da5cb5b",
    "query(uint256,address,function)": "fcca5ddd",
    "renounceOwnership()": "715018a6",
    "token()": "fc0c546a",
    "transferOwnership(address)": "f2fde38b"
  },
  "id": 2
}