{
  "abi": [
    {
      "inputs": [
        {
          "internalType": "uint256",
          "name": "x",
          "type": "uint256"
        },
        {
          "internalType": "uint256",
          "name": "y",
          "type": "uint256"
        }
      ],
      "name": "addAssembly",
      "outputs": [
        {
          "internalType": "uint256",
          "name": "",
          "type": "uint256"
        }
      ],
      "stateMutability": "pure",
      "type": "function"
    }
  ],
  "bytecode": {
    "object": "0x6080604052348015600f57600080fd5b5060b28061001e6000396000f3fe6080604052348015600f57600080fd5b506004361060285760003560e01c806308bb111414602d575b600080fd5b603c6038366004605b565b604e565b60405190815260200160405180910390f35b8181016000908152602081f35b60008060408385031215606d57600080fd5b5050803592602090910135915056fea26469706673582212207a59f1d418a5f08dbcd9907e9ee5ab7e30a847342ae556593792bbfa99982aae64736f6c634300080d0033",
    "linkReferences": {}
  },
  "methodIdentifiers": {
    "addAssembly(uint256,uint256)": "08bb1114"
  },
  "id": 0
}